{
  "address": "0x5871286045582C2F98077BFfBE1D76442ECA4389",
  "abi": [
    {
      "inputs": [
        {
          "internalType": "address",
          "name": "_ftsoRegistry",
          "type": "address"
        },
        {
          "internalType": "address",
          "name": "_randomProvider",
          "type": "address"
        },
        {
          "internalType": "address",
          "name": "_fdcHub",
          "type": "address"
        },
        {
          "internalType": "uint256",
          "name": "_entryFee",
          "type": "uint256"
        },
        {
          "internalType": "uint256",
          "name": "_volatilityThreshold",
          "type": "uint256"
        },
        {
          "internalType": "uint256",
          "name": "_roundDuration",
          "type": "uint256"
        },
        {
          "internalType": "string",
          "name": "_pricePairSymbol",
          "type": "string"
        }
      ],
      "stateMutability": "nonpayable",
      "type": "constructor"
    },
    {
      "anonymous": false,
      "inputs": [
        {
          "indexed": true,
          "internalType": "uint256",
          "name": "roundId",
          "type": "uint256"
        },
        {
          "indexed": false,
          "internalType": "address",
          "name": "winner",
          "type": "address"
        },
        {
          "indexed": false,
          "internalType": "uint256",
          "name": "amount",
          "type": "uint256"
        }
      ],
      "name": "JackpotWinnerSelected",
      "type": "event"
    },
    {
      "anonymous": false,
      "inputs": [
        {
          "indexed": true,
          "internalType": "uint256",
          "name": "roundId",
          "type": "uint256"
        },
        {
          "indexed": true,
          "internalType": "address",
          "name": "player",
          "type": "address"
        },
        {
          "indexed": false,
          "internalType": "bool",
          "name": "isHighVolatility",
          "type": "bool"
        },
        {
          "indexed": false,
          "internalType": "uint256",
          "name": "amount",
          "type": "uint256"
        }
      ],
      "name": "PredictionMade",
      "type": "event"
    },
    {
      "anonymous": false,
      "inputs": [
        {
          "indexed": true,
          "internalType": "uint256",
          "name": "roundId",
          "type": "uint256"
        },
        {
          "indexed": true,
          "internalType": "address",
          "name": "player",
          "type": "address"
        },
        {
          "indexed": false,
          "internalType": "uint256",
          "name": "amount",
          "type": "uint256"
        }
      ],
      "name": "RewardClaimed",
      "type": "event"
    },
    {
      "anonymous": false,
      "inputs": [
        {
          "indexed": true,
          "internalType": "uint256",
          "name": "roundId",
          "type": "uint256"
        },
        {
          "indexed": false,
          "internalType": "uint256",
          "name": "endPrice",
          "type": "uint256"
        },
        {
          "indexed": false,
          "internalType": "uint256",
          "name": "volatility",
          "type": "uint256"
        },
        {
          "indexed": false,
          "internalType": "bool",
          "name": "isHighVolatility",
          "type": "bool"
        }
      ],
      "name": "RoundFinalized",
      "type": "event"
    },
    {
      "anonymous": false,
      "inputs": [
        {
          "indexed": true,
          "internalType": "uint256",
          "name": "roundId",
          "type": "uint256"
        },
        {
          "indexed": false,
          "internalType": "uint256",
          "name": "startTime",
          "type": "uint256"
        },
        {
          "indexed": false,
          "internalType": "uint256",
          "name": "startPrice",
          "type": "uint256"
        }
      ],
      "name": "RoundStarted",
      "type": "event"
    },
    {
      "inputs": [
        {
          "internalType": "uint256",
          "name": "_roundId",
          "type": "uint256"
        }
      ],
      "name": "claimRewards",
      "outputs": [],
      "stateMutability": "nonpayable",
      "type": "function"
    },
    {
      "inputs": [],
      "name": "entryFee",
      "outputs": [
        {
          "internalType": "uint256",
          "name": "",
          "type": "uint256"
        }
      ],
      "stateMutability": "view",
      "type": "function"
    },
    {
      "inputs": [],
      "name": "fdcHub",
      "outputs": [
        {
          "internalType": "contract IFdcHub",
          "name": "",
          "type": "address"
        }
      ],
      "stateMutability": "view",
      "type": "function"
    },
    {
      "inputs": [],
      "name": "finalizeRound",
      "outputs": [],
      "stateMutability": "nonpayable",
      "type": "function"
    },
    {
      "inputs": [],
      "name": "ftsoRegistry",
      "outputs": [
        {
          "internalType": "contract IFtsoRegistry",
          "name": "",
          "type": "address"
        }
      ],
      "stateMutability": "view",
      "type": "function"
    },
    {
      "inputs": [
        {
          "internalType": "uint256",
          "name": "",
          "type": "uint256"
        },
        {
          "internalType": "uint256",
          "name": "",
          "type": "uint256"
        }
      ],
      "name": "highVolatilityPlayers",
      "outputs": [
        {
          "internalType": "address",
          "name": "",
          "type": "address"
        }
      ],
      "stateMutability": "view",
      "type": "function"
    },
    {
      "inputs": [
        {
          "internalType": "uint256",
          "name": "",
          "type": "uint256"
        },
        {
          "internalType": "uint256",
          "name": "",
          "type": "uint256"
        }
      ],
      "name": "lowVolatilityPlayers",
      "outputs": [
        {
          "internalType": "address",
          "name": "",
          "type": "address"
        }
      ],
      "stateMutability": "view",
      "type": "function"
    },
    {
      "inputs": [
        {
          "internalType": "bool",
          "name": "_isHighVolatility",
          "type": "bool"
        }
      ],
      "name": "makePrediction",
      "outputs": [],
      "stateMutability": "payable",
      "type": "function"
    },
    {
      "inputs": [
        {
          "internalType": "uint256",
          "name": "",
          "type": "uint256"
        },
        {
          "internalType": "address",
          "name": "",
          "type": "address"
        }
      ],
      "name": "predictions",
      "outputs": [
        {
          "internalType": "bool",
          "name": "isHighVolatility",
          "type": "bool"
        },
        {
          "internalType": "uint256",
          "name": "amount",
          "type": "uint256"
        },
        {
          "internalType": "bool",
          "name": "hasClaimed",
          "type": "bool"
        }
      ],
      "stateMutability": "view",
      "type": "function"
    },
    {
      "inputs": [],
      "name": "pricePairSymbol",
      "outputs": [
        {
          "internalType": "string",
          "name": "",
          "type": "string"
        }
      ],
      "stateMutability": "view",
      "type": "function"
    },
    {
      "inputs": [],
      "name": "randomProvider",
      "outputs": [
        {
          "internalType": "contract IRandomProvider",
          "name": "",
          "type": "address"
        }
      ],
      "stateMutability": "view",
      "type": "function"
    },
    {
      "inputs": [],
      "name": "roundDuration",
      "outputs": [
        {
          "internalType": "uint256",
          "name": "",
          "type": "uint256"
        }
      ],
      "stateMutability": "view",
      "type": "function"
    },
    {
      "inputs": [],
      "name": "roundId",
      "outputs": [
        {
          "internalType": "uint256",
          "name": "",
          "type": "uint256"
        }
      ],
      "stateMutability": "view",
      "type": "function"
    },
    {
      "inputs": [
        {
          "internalType": "uint256",
          "name": "",
          "type": "uint256"
        }
      ],
      "name": "rounds",
      "outputs": [
        {
          "internalType": "uint256",
          "name": "startTime",
          "type": "uint256"
        },
        {
          "internalType": "uint256",
          "name": "endTime",
          "type": "uint256"
        },
        {
          "internalType": "uint256",
          "name": "startPrice",
          "type": "uint256"
        },
        {
          "internalType": "uint256",
          "name": "endPrice",
          "type": "uint256"
        },
        {
          "internalType": "uint256",
          "name": "actualVolatility",
          "type": "uint256"
        },
        {
          "internalType": "bool",
          "name": "isHighVolatility",
          "type": "bool"
        },
        {
          "internalType": "bool",
          "name": "isFinalized",
          "type": "bool"
        },
        {
          "internalType": "uint256",
          "name": "totalPot",
          "type": "uint256"
        },
        {
          "internalType": "uint256",
          "name": "highVolatilityPot",
          "type": "uint256"
        },
        {
          "internalType": "uint256",
          "name": "lowVolatilityPot",
          "type": "uint256"
        },
        {
          "internalType": "address",
          "name": "jackpotWinner",
          "type": "address"
        }
      ],
      "stateMutability": "view",
      "type": "function"
    },
    {
      "inputs": [],
      "name": "startRound",
      "outputs": [],
      "stateMutability": "nonpayable",
      "type": "function"
    },
    {
      "inputs": [],
      "name": "volatilityThreshold",
      "outputs": [
        {
          "internalType": "uint256",
          "name": "",
          "type": "uint256"
        }
      ],
      "stateMutability": "view",
      "type": "function"
    }
  ],
  "transactionHash": "0x85116ee6fbbca1787ada3fd00b6526b0fe2410f0354db8671097c02e5f1b61d8",
  "args": [
    "0xC4e9c78EA53db782E28f28Fdf80BaF59336B304d",
    "0x7350F7E13dC7d59DED993132E51142CAd9A64367",
    "0x48aC463d7975828989331F4De43341627b9c5f1D",
    "1000000000000000000",
    100,
    600,
    "BTC/USD"
  ],
  "numDeployments": 1,
  "solcInputHash": "9e1cec373f8daf24f3ecd890759789d7",
  "bytecode": "0x60806040523480156200001157600080fd5b506040516200176c3803806200176c8339810160408190526200003491620000d5565b600080546001600160a01b03808a166001600160a01b03199283161790925560018054898416908316179055600280549288169290911691909117905560048490556005839055600682905560076200008e82826200028f565b50506001600355506200035b945050505050565b80516001600160a01b0381168114620000ba57600080fd5b919050565b634e487b7160e01b600052604160045260246000fd5b600080600080600080600060e0888a031215620000f157600080fd5b620000fc88620000a2565b965060206200010d818a01620000a2565b96506200011d60408a01620000a2565b60608a015160808b015160a08c015160c08d0151939950919750955093506001600160401b03808211156200015157600080fd5b818b0191508b601f8301126200016657600080fd5b8151818111156200017b576200017b620000bf565b604051601f8201601f19908116603f01168101908382118183101715620001a657620001a6620000bf565b816040528281528e86848701011115620001bf57600080fd5b600093505b82841015620001e35784840186015181850187015292850192620001c4565b600086848301015280965050505050505092959891949750929550565b600181811c908216806200021557607f821691505b6020821081036200023657634e487b7160e01b600052602260045260246000fd5b50919050565b601f8211156200028a57600081815260208120601f850160051c81016020861015620002655750805b601f850160051c820191505b81811015620002865782815560010162000271565b5050505b505050565b81516001600160401b03811115620002ab57620002ab620000bf565b620002c381620002bc845462000200565b846200023c565b602080601f831160018114620002fb5760008415620002e25750858301515b600019600386901b1c1916600185901b17855562000286565b600085815260208120601f198616915b828110156200032c578886015182559484019460019091019084016200030b565b50858210156200034b5787850151600019600388901b60f8161c191681555b5050505050600190811b01905550565b611401806200036b6000396000f3fe6080604052600436106100f35760003560e01c80638cd221c91161008a578063b9e62a5711610059578063b9e62a571461037d578063d2f1f3cb14610390578063f029e67f146103b0578063f7cb789a146103d057600080fd5b80638cd221c9146102c65780638f46500e146102dc57806392b108d0146102fc5780639fe88c841461036757600080fd5b806355e3f086116100c657806355e3f0861461019057806365893e87146101a55780638010fcaf146101c75780638c65c81f146101e757600080fd5b8063072ea61c146100f85780630962ef79146101215780631e8203251461014357806338b5f86914610158575b600080fd5b34801561010457600080fd5b5061010e60045481565b6040519081526020015b60405180910390f35b34801561012d57600080fd5b5061014161013c3660046110ea565b6103e6565b005b34801561014f57600080fd5b506101416106eb565b34801561016457600080fd5b50600054610178906001600160a01b031681565b6040516001600160a01b039091168152602001610118565b34801561019c57600080fd5b50610141610b1f565b3480156101b157600080fd5b506101ba610d6f565b6040516101189190611103565b3480156101d357600080fd5b50600254610178906001600160a01b031681565b3480156101f357600080fd5b506102686102023660046110ea565b600860208190526000918252604090912080546001820154600283015460038401546004850154600586015460068701546007880154988801546009909801549698959794969395929460ff80841695610100909404169391926001600160a01b03168b565b604080519b8c5260208c019a909a52988a01979097526060890195909552608088019390935290151560a0870152151560c086015260e08501526101008401526101208301526001600160a01b031661014082015261016001610118565b3480156102d257600080fd5b5061010e60035481565b3480156102e857600080fd5b50600154610178906001600160a01b031681565b34801561030857600080fd5b50610348610317366004611151565b600960209081526000928352604080842090915290825290208054600182015460029092015460ff91821692911683565b6040805193151584526020840192909252151590820152606001610118565b34801561037357600080fd5b5061010e60055481565b61014161038b36600461118d565b610dfd565b34801561039c57600080fd5b506101786103ab3660046111b6565b611096565b3480156103bc57600080fd5b506101786103cb3660046111b6565b6110ce565b3480156103dc57600080fd5b5061010e60065481565b600081815260086020526040902060050154610100900460ff166104475760405162461bcd60e51b8152602060048201526013602482015272149bdd5b99081b9bdd08199a5b985b1a5e9959606a1b60448201526064015b60405180910390fd5b600081815260096020908152604080832033845290915290206002015460ff16156104a65760405162461bcd60e51b815260206004820152600f60248201526e105b1c9958591e4818db185a5b5959608a1b604482015260640161043e565b60008181526009602090815260408083203384528252918290208251606081018452815460ff9081161515825260018301549382018490526002909201549091161515928101929092526105315760405162461bcd60e51b81526020600482015260126024820152714e6f2070726564696374696f6e206d61646560701b604482015260640161043e565b6000828152600860205260409020600501548151151560ff9091161515148061059c5760405162461bcd60e51b815260206004820152601960248201527f596f75206469646e27742077696e207468697320726f756e6400000000000000604482015260640161043e565b6000811561065c5782516000906105c557600085815260086020819052604090912001546105d8565b6000858152600860205260409020600701545b9050806008600087815260200190815260200160002060060154856020015161060191906111ee565b61060b9190611221565b6000868152600860205260409020600901549092506001600160a01b0316330361065a5760008581526008602052604090206006015461064d90600a90611221565b6106579083611235565b91505b505b6000848152600960209081526040808320338085529252808320600201805460ff1916600117905551909183156108fc02918491818181858888f193505050501580156106ad573d6000803e3d6000fd5b50604051818152339085907f24b5efa61dd1cfc659205a97fb8ed868f3cb8c81922bab2b96423e5de1de2cb79060200160405180910390a350505050565b6003546000818152600860205260409020600101544210156107455760405162461bcd60e51b8152602060048201526013602482015272149bdd5b99081b9bdd08195b991959081e595d606a1b604482015260640161043e565b600081815260086020526040902060050154610100900460ff16156107ac5760405162461bcd60e51b815260206004820152601760248201527f526f756e6420616c72656164792066696e616c697a6564000000000000000000604482015260640161043e565b6000805460405163534d7ee360e11b81526001600160a01b039091169063a69afdc6906107de90600790600401611282565b606060405180830381865afa1580156107fb573d6000803e3d6000fd5b505050506040513d601f19601f8201168201806040525081019061081f919061132e565b5050600083815260086020526040812060020154919250818311156108665781610849818561135c565b610855906127106111ee565b61085f9190611221565b905061088a565b81610871848261135c565b61087d906127106111ee565b6108879190611221565b90505b6005805460008681526008602052604081206003810187905560048101859055909201805460ff191691841015918217905590816108d5576000868152600b602052604090206108e4565b6000868152600a602052604090205b80548060200260200160405190810160405280929190818152602001828054801561093857602002820191906000526020600020905b81546001600160a01b0316815260019091019060200180831161091a575b50505050509050600081511115610aa2576001546040805163d89601fd60e01b815290516000926001600160a01b03169163d89601fd9160048083019260209291908290030181865afa158015610993573d6000803e3d6000fd5b505050506040513d601f19601f820116820180604052508101906109b7919061136f565b905060008251826109c89190611388565b90508281815181106109dc576109dc61139c565b6020026020010151600860008a815260200190815260200160002060090160006101000a8154816001600160a01b0302191690836001600160a01b03160217905550877ff6c4e96498b56f59e33c2a0fd2673bcf1c84f97daec9ed7d1fe57fa1174cfd09848381518110610a5257610a5261139c565b6020026020010151600a600860008d815260200190815260200160002060060154610a7d9190611221565b604080516001600160a01b03909316835260208301919091520160405180910390a250505b6000868152600860205260408120600501805461ff0019166101001790556003805491610ace836113b2565b9091555050604080518681526020810185905283151581830152905187917f8287198ee1278e57d6757ad00292b58fe127cc5f1799a3f3ea09e27f2cc681d6919081900360600190a2505050505050565b60035460011480610b5b5750600860006001600354610b3e919061135c565b8152602081019190915260400160002060050154610100900460ff165b610ba75760405162461bcd60e51b815260206004820152601c60248201527f50726576696f757320726f756e64206e6f742066696e616c697a656400000000604482015260640161043e565b6000805460405163534d7ee360e11b81526001600160a01b039091169063a69afdc690610bd990600790600401611282565b606060405180830381865afa158015610bf6573d6000803e3d6000fd5b505050506040513d601f19601f82011682018060405250810190610c1a919061132e565b5050905060405180610160016040528042815260200160065442610c3e9190611235565b81526020808201849052600060408084018290526060808501839052608080860184905260a080870185905260c080880186905260e0808901879052610100808a01889052610120998a018890526003805489526008808b52988890208c5181558c8b015160018201558c8901516002820155968c015187820155948b01516004870155928a0151600586018054938c015161ffff1990941691151561ff0019169190911792151584029290921790915588015160068401558701516007830155948601519281019290925561014090940151600990910180546001600160a01b0319166001600160a01b0390921691909117905590548251428152918201849052917fa359b664a68acd8839e42112eb50eff3408165e15074fde89ddb58a0db2e691d910160405180910390a250565b60078054610d7c90611248565b80601f0160208091040260200160405190810160405280929190818152602001828054610da890611248565b8015610df55780601f10610dca57610100808354040283529160200191610df5565b820191906000526020600020905b815481529060010190602001808311610dd857829003601f168201915b505050505081565b6003546000908152600860205260409020600101544210610e525760405162461bcd60e51b815260206004820152600f60248201526e149bdd5b99081a185cc8195b991959608a1b604482015260640161043e565b600454341015610e9d5760405162461bcd60e51b8152602060048201526016602482015275496e73756666696369656e7420656e7472792066656560501b604482015260640161043e565b600354600090815260096020908152604080832033845290915290206001015415610f0a5760405162461bcd60e51b815260206004820152601960248201527f416c7265616479206d61646520612070726564696374696f6e00000000000000604482015260640161043e565b604080516060810182528215801582523460208084019182526000848601818152600354825260098352868220338352909252949094209251835490151560ff19918216178455905160018401559251600290920180549215159290931691909117909155610fd057600380546000908152600a6020908152604080832080546001810182559084528284200180546001600160a01b0319163317905592548252600890529081206007018054349290610fc5908490611235565b9091555061102a9050565b600380546000908152600b6020908152604080832080546001810182559084528284200180546001600160a01b03191633179055925482526008908190529181209091018054349290611024908490611235565b90915550505b6003546000908152600860205260408120600601805434929061104e908490611235565b90915550506003546040805183151581523460208201523392917fa9aed7f94b5a4f3dd5866f22ce8fc1e6b9d02da3ba20a212a4b5668dd29dc1d1910160405180910390a350565b600b60205281600052604060002081815481106110b257600080fd5b6000918252602090912001546001600160a01b03169150829050565b600a60205281600052604060002081815481106110b257600080fd5b6000602082840312156110fc57600080fd5b5035919050565b600060208083528351808285015260005b8181101561113057858101830151858201604001528201611114565b506000604082860101526040601f19601f8301168501019250505092915050565b6000806040838503121561116457600080fd5b8235915060208301356001600160a01b038116811461118257600080fd5b809150509250929050565b60006020828403121561119f57600080fd5b813580151581146111af57600080fd5b9392505050565b600080604083850312156111c957600080fd5b50508035926020909101359150565b634e487b7160e01b600052601160045260246000fd5b8082028115828204841417611205576112056111d8565b92915050565b634e487b7160e01b600052601260045260246000fd5b6000826112305761123061120b565b500490565b80820180821115611205576112056111d8565b600181811c9082168061125c57607f821691505b60208210810361127c57634e487b7160e01b600052602260045260246000fd5b50919050565b600060208083526000845481600182811c9150808316806112a457607f831692505b85831081036112c157634e487b7160e01b85526022600452602485fd5b8786018381526020018180156112de57600181146112f45761131f565b60ff198616825284151560051b8201965061131f565b60008b81526020902060005b8681101561131957815484820152908501908901611300565b83019750505b50949998505050505050505050565b60008060006060848603121561134357600080fd5b8351925060208401519150604084015190509250925092565b81810381811115611205576112056111d8565b60006020828403121561138157600080fd5b5051919050565b6000826113975761139761120b565b500690565b634e487b7160e01b600052603260045260246000fd5b6000600182016113c4576113c46111d8565b506001019056fea26469706673582212204634b2aa411445f014a3c0a99ddde3e11a5f67de948afb106e6f321a85c3703a64736f6c63430008140033",
  "devdoc": {
    "details": "A decentralized game where users bet on cryptocurrency price volatility Uses Flare's FTSO for price feeds, FDC for finalization, and RNG for winner selection",
    "kind": "dev",
    "methods": {
      "claimRewards(uint256)": {
        "details": "Claim rewards for a specific round",
        "params": {
          "_roundId": "The round to claim rewards for"
        }
      },
      "constructor": {
        "details": "Constructor to initialize the contract",
        "params": {
          "_entryFee": "Minimum amount of FLR to enter the lottery",
          "_fdcHub": "Address of the FDC Hub contract",
          "_ftsoRegistry": "Address of the FTSO Registry contract",
          "_pricePairSymbol": "Price pair to track (e.g., \"BTC/USD\")",
          "_randomProvider": "Address of the Random Provider contract",
          "_roundDuration": "Duration of each round in seconds",
          "_volatilityThreshold": "Threshold to determine high/low volatility in basis points"
        }
      },
      "finalizeRound()": {
        "details": "Finalize the current round Uses FDC Hub for finalized data and gets a random number for jackpot selection"
      },
      "makePrediction(bool)": {
        "details": "Make a prediction for the current round",
        "params": {
          "_isHighVolatility": "True if predicting high volatility, false otherwise"
        }
      },
      "startRound()": {
        "details": "Start a new lottery round"
      }
    },
    "title": "VolatilityLottery",
    "version": 1
  },
  "userdoc": {
    "kind": "user",
    "methods": {},
    "version": 1
  },
  "storageLayout": {
    "storage": [
      {
        "astId": 1757,
        "contract": "contracts/VolatilityLottery.sol:VolatilityLottery",
        "label": "ftsoRegistry",
        "offset": 0,
        "slot": "0",
        "type": "t_contract(IFtsoRegistry)483"
      },
      {
        "astId": 1760,
        "contract": "contracts/VolatilityLottery.sol:VolatilityLottery",
        "label": "randomProvider",
        "offset": 0,
        "slot": "1",
        "type": "t_contract(IRandomProvider)815"
      },
      {
        "astId": 1763,
        "contract": "contracts/VolatilityLottery.sol:VolatilityLottery",
        "label": "fdcHub",
        "offset": 0,
        "slot": "2",
        "type": "t_contract(IFdcHub)52"
      },
      {
        "astId": 1765,
        "contract": "contracts/VolatilityLottery.sol:VolatilityLottery",
        "label": "roundId",
        "offset": 0,
        "slot": "3",
        "type": "t_uint256"
      },
      {
        "astId": 1767,
        "contract": "contracts/VolatilityLottery.sol:VolatilityLottery",
        "label": "entryFee",
        "offset": 0,
        "slot": "4",
        "type": "t_uint256"
      },
      {
        "astId": 1769,
        "contract": "contracts/VolatilityLottery.sol:VolatilityLottery",
        "label": "volatilityThreshold",
        "offset": 0,
        "slot": "5",
        "type": "t_uint256"
      },
      {
        "astId": 1771,
        "contract": "contracts/VolatilityLottery.sol:VolatilityLottery",
        "label": "roundDuration",
        "offset": 0,
        "slot": "6",
        "type": "t_uint256"
      },
      {
        "astId": 1773,
        "contract": "contracts/VolatilityLottery.sol:VolatilityLottery",
        "label": "pricePairSymbol",
        "offset": 0,
        "slot": "7",
        "type": "t_string_storage"
      },
      {
        "astId": 1808,
        "contract": "contracts/VolatilityLottery.sol:VolatilityLottery",
        "label": "rounds",
        "offset": 0,
        "slot": "8",
        "type": "t_mapping(t_uint256,t_struct(Round)1796_storage)"
      },
      {
        "astId": 1815,
        "contract": "contracts/VolatilityLottery.sol:VolatilityLottery",
        "label": "predictions",
        "offset": 0,
        "slot": "9",
        "type": "t_mapping(t_uint256,t_mapping(t_address,t_struct(Prediction)1803_storage))"
      },
      {
        "astId": 1820,
        "contract": "contracts/VolatilityLottery.sol:VolatilityLottery",
        "label": "highVolatilityPlayers",
        "offset": 0,
        "slot": "10",
        "type": "t_mapping(t_uint256,t_array(t_address)dyn_storage)"
      },
      {
        "astId": 1825,
        "contract": "contracts/VolatilityLottery.sol:VolatilityLottery",
        "label": "lowVolatilityPlayers",
        "offset": 0,
        "slot": "11",
        "type": "t_mapping(t_uint256,t_array(t_address)dyn_storage)"
      }
    ],
    "types": {
      "t_address": {
        "encoding": "inplace",
        "label": "address",
        "numberOfBytes": "20"
      },
      "t_array(t_address)dyn_storage": {
        "base": "t_address",
        "encoding": "dynamic_array",
        "label": "address[]",
        "numberOfBytes": "32"
      },
      "t_bool": {
        "encoding": "inplace",
        "label": "bool",
        "numberOfBytes": "1"
      },
      "t_contract(IFdcHub)52": {
        "encoding": "inplace",
        "label": "contract IFdcHub",
        "numberOfBytes": "20"
      },
      "t_contract(IFtsoRegistry)483": {
        "encoding": "inplace",
        "label": "contract IFtsoRegistry",
        "numberOfBytes": "20"
      },
      "t_contract(IRandomProvider)815": {
        "encoding": "inplace",
        "label": "contract IRandomProvider",
        "numberOfBytes": "20"
      },
      "t_mapping(t_address,t_struct(Prediction)1803_storage)": {
        "encoding": "mapping",
        "key": "t_address",
        "label": "mapping(address => struct VolatilityLottery.Prediction)",
        "numberOfBytes": "32",
        "value": "t_struct(Prediction)1803_storage"
      },
      "t_mapping(t_uint256,t_array(t_address)dyn_storage)": {
        "encoding": "mapping",
        "key": "t_uint256",
        "label": "mapping(uint256 => address[])",
        "numberOfBytes": "32",
        "value": "t_array(t_address)dyn_storage"
      },
      "t_mapping(t_uint256,t_mapping(t_address,t_struct(Prediction)1803_storage))": {
        "encoding": "mapping",
        "key": "t_uint256",
        "label": "mapping(uint256 => mapping(address => struct VolatilityLottery.Prediction))",
        "numberOfBytes": "32",
        "value": "t_mapping(t_address,t_struct(Prediction)1803_storage)"
      },
      "t_mapping(t_uint256,t_struct(Round)1796_storage)": {
        "encoding": "mapping",
        "key": "t_uint256",
        "label": "mapping(uint256 => struct VolatilityLottery.Round)",
        "numberOfBytes": "32",
        "value": "t_struct(Round)1796_storage"
      },
      "t_string_storage": {
        "encoding": "bytes",
        "label": "string",
        "numberOfBytes": "32"
      },
      "t_struct(Prediction)1803_storage": {
        "encoding": "inplace",
        "label": "struct VolatilityLottery.Prediction",
        "members": [
          {
            "astId": 1798,
            "contract": "contracts/VolatilityLottery.sol:VolatilityLottery",
            "label": "isHighVolatility",
            "offset": 0,
            "slot": "0",
            "type": "t_bool"
          },
          {
            "astId": 1800,
            "contract": "contracts/VolatilityLottery.sol:VolatilityLottery",
            "label": "amount",
            "offset": 0,
            "slot": "1",
            "type": "t_uint256"
          },
          {
            "astId": 1802,
            "contract": "contracts/VolatilityLottery.sol:VolatilityLottery",
            "label": "hasClaimed",
            "offset": 0,
            "slot": "2",
            "type": "t_bool"
          }
        ],
        "numberOfBytes": "96"
      },
      "t_struct(Round)1796_storage": {
        "encoding": "inplace",
        "label": "struct VolatilityLottery.Round",
        "members": [
          {
            "astId": 1775,
            "contract": "contracts/VolatilityLottery.sol:VolatilityLottery",
            "label": "startTime",
            "offset": 0,
            "slot": "0",
            "type": "t_uint256"
          },
          {
            "astId": 1777,
            "contract": "contracts/VolatilityLottery.sol:VolatilityLottery",
            "label": "endTime",
            "offset": 0,
            "slot": "1",
            "type": "t_uint256"
          },
          {
            "astId": 1779,
            "contract": "contracts/VolatilityLottery.sol:VolatilityLottery",
            "label": "startPrice",
            "offset": 0,
            "slot": "2",
            "type": "t_uint256"
          },
          {
            "astId": 1781,
            "contract": "contracts/VolatilityLottery.sol:VolatilityLottery",
            "label": "endPrice",
            "offset": 0,
            "slot": "3",
            "type": "t_uint256"
          },
          {
            "astId": 1783,
            "contract": "contracts/VolatilityLottery.sol:VolatilityLottery",
            "label": "actualVolatility",
            "offset": 0,
            "slot": "4",
            "type": "t_uint256"
          },
          {
            "astId": 1785,
            "contract": "contracts/VolatilityLottery.sol:VolatilityLottery",
            "label": "isHighVolatility",
            "offset": 0,
            "slot": "5",
            "type": "t_bool"
          },
          {
            "astId": 1787,
            "contract": "contracts/VolatilityLottery.sol:VolatilityLottery",
            "label": "isFinalized",
            "offset": 1,
            "slot": "5",
            "type": "t_bool"
          },
          {
            "astId": 1789,
            "contract": "contracts/VolatilityLottery.sol:VolatilityLottery",
            "label": "totalPot",
            "offset": 0,
            "slot": "6",
            "type": "t_uint256"
          },
          {
            "astId": 1791,
            "contract": "contracts/VolatilityLottery.sol:VolatilityLottery",
            "label": "highVolatilityPot",
            "offset": 0,
            "slot": "7",
            "type": "t_uint256"
          },
          {
            "astId": 1793,
            "contract": "contracts/VolatilityLottery.sol:VolatilityLottery",
            "label": "lowVolatilityPot",
            "offset": 0,
            "slot": "8",
            "type": "t_uint256"
          },
          {
            "astId": 1795,
            "contract": "contracts/VolatilityLottery.sol:VolatilityLottery",
            "label": "jackpotWinner",
            "offset": 0,
            "slot": "9",
            "type": "t_address"
          }
        ],
        "numberOfBytes": "320"
      },
      "t_uint256": {
        "encoding": "inplace",
        "label": "uint256",
        "numberOfBytes": "32"
      }
    }
  }
}