{
  "address": "0x0e06e51ABB2E402be0e108E50D20005EF2Ea89F3",
  "abi": [
    {
      "anonymous": false,
      "inputs": [
        {
          "indexed": false,
          "internalType": "address",
          "name": "winner",
          "type": "address"
        },
        {
          "indexed": false,
          "internalType": "uint256",
          "name": "prizeAmount",
          "type": "uint256"
        }
      ],
      "name": "LotteryEnded",
      "type": "event"
    },
    {
      "anonymous": false,
      "inputs": [
        {
          "indexed": true,
          "internalType": "address",
          "name": "participant",
          "type": "address"
        },
        {
          "indexed": false,
          "internalType": "uint256",
          "name": "amount",
          "type": "uint256"
        }
      ],
      "name": "LotteryEntered",
      "type": "event"
    },
    {
      "anonymous": false,
      "inputs": [
        {
          "indexed": false,
          "internalType": "uint256",
          "name": "startTime",
          "type": "uint256"
        }
      ],
      "name": "LotteryStarted",
      "type": "event"
    },
    {
      "anonymous": false,
      "inputs": [
        {
          "indexed": true,
          "internalType": "uint256",
          "name": "roundId",
          "type": "uint256"
        },
        {
          "indexed": false,
          "internalType": "uint256",
          "name": "startTime",
          "type": "uint256"
        },
        {
          "indexed": false,
          "internalType": "uint256",
          "name": "endTime",
          "type": "uint256"
        }
      ],
      "name": "RoundStarted",
      "type": "event"
    },
    {
      "inputs": [],
      "name": "BTC_USD_ID",
      "outputs": [
        {
          "internalType": "bytes21",
          "name": "",
          "type": "bytes21"
        }
      ],
      "stateMutability": "view",
      "type": "function"
    },
    {
      "inputs": [],
      "name": "ETH_USD_ID",
      "outputs": [
        {
          "internalType": "bytes21",
          "name": "",
          "type": "bytes21"
        }
      ],
      "stateMutability": "view",
      "type": "function"
    },
    {
      "inputs": [],
      "name": "FLR_USD_ID",
      "outputs": [
        {
          "internalType": "bytes21",
          "name": "",
          "type": "bytes21"
        }
      ],
      "stateMutability": "view",
      "type": "function"
    },
    {
      "inputs": [],
      "name": "checkAndEndRound",
      "outputs": [],
      "stateMutability": "nonpayable",
      "type": "function"
    },
    {
      "inputs": [],
      "name": "endLottery",
      "outputs": [],
      "stateMutability": "nonpayable",
      "type": "function"
    },
    {
      "inputs": [
        {
          "internalType": "uint256",
          "name": "amount",
          "type": "uint256"
        }
      ],
      "name": "enterLottery",
      "outputs": [],
      "stateMutability": "payable",
      "type": "function"
    },
    {
      "inputs": [],
      "name": "forceEndRound",
      "outputs": [],
      "stateMutability": "nonpayable",
      "type": "function"
    },
    {
      "inputs": [],
      "name": "fundLottery",
      "outputs": [],
      "stateMutability": "payable",
      "type": "function"
    },
    {
      "inputs": [],
      "name": "isRoundActive",
      "outputs": [
        {
          "internalType": "bool",
          "name": "",
          "type": "bool"
        }
      ],
      "stateMutability": "view",
      "type": "function"
    },
    {
      "inputs": [],
      "name": "lotteryEndTime",
      "outputs": [
        {
          "internalType": "uint256",
          "name": "",
          "type": "uint256"
        }
      ],
      "stateMutability": "view",
      "type": "function"
    },
    {
      "inputs": [],
      "name": "lotteryThreshold",
      "outputs": [
        {
          "internalType": "uint256",
          "name": "",
          "type": "uint256"
        }
      ],
      "stateMutability": "view",
      "type": "function"
    },
    {
      "inputs": [
        {
          "internalType": "address",
          "name": "",
          "type": "address"
        }
      ],
      "name": "participantBalances",
      "outputs": [
        {
          "internalType": "uint256",
          "name": "",
          "type": "uint256"
        }
      ],
      "stateMutability": "view",
      "type": "function"
    },
    {
      "inputs": [
        {
          "internalType": "uint256",
          "name": "",
          "type": "uint256"
        }
      ],
      "name": "participants",
      "outputs": [
        {
          "internalType": "address",
          "name": "",
          "type": "address"
        }
      ],
      "stateMutability": "view",
      "type": "function"
    },
    {
      "inputs": [],
      "name": "roundId",
      "outputs": [
        {
          "internalType": "uint256",
          "name": "",
          "type": "uint256"
        }
      ],
      "stateMutability": "view",
      "type": "function"
    },
    {
      "inputs": [
        {
          "internalType": "uint256",
          "name": "newEndTime",
          "type": "uint256"
        }
      ],
      "name": "setLotteryEndTime",
      "outputs": [],
      "stateMutability": "nonpayable",
      "type": "function"
    },
    {
      "inputs": [
        {
          "internalType": "uint256",
          "name": "newThreshold",
          "type": "uint256"
        }
      ],
      "name": "setLotteryThreshold",
      "outputs": [],
      "stateMutability": "nonpayable",
      "type": "function"
    },
    {
      "inputs": [],
      "name": "startRound",
      "outputs": [],
      "stateMutability": "nonpayable",
      "type": "function"
    },
    {
      "inputs": [
        {
          "internalType": "uint256",
          "name": "amount",
          "type": "uint256"
        }
      ],
      "name": "withdrawFunds",
      "outputs": [],
      "stateMutability": "nonpayable",
      "type": "function"
    }
  ],
  "transactionHash": "0x325062134dce8046ab9b128979be9e3fd4a3e9877349c04a78b0122cf96349f6",
  "args": [],
  "numDeployments": 10,
  "solcInputHash": "b9a3e54b34ae5823e02223e827a2965d",
  "bytecode": "0x6080604052670de0b6b3a764000060005534801561001c57600080fd5b50610d228061002c6000396000f3fe6080604052600436106101095760003560e01c806345945a4511610095578063ad97610c11610064578063ad97610c146102bc578063b5cc45391461016e578063bebefc6a146102d1578063c151ff1c146102ef578063d88632091461030557600080fd5b806345945a451461024757806355e3f086146102715780638cd221c914610286578063a2b20d601461029c57600080fd5b8063155dd5ee116100dc578063155dd5ee146101a35780631593a8c7146101c357806335c1d349146101d85780633fd430981461021057806343662a7e1461022357600080fd5b8063096bbd281461010e5780630b7ab3931461014e5780630b98519414610170578063107704b51461018e575b600080fd5b34801561011a57600080fd5b5061012c665193148bd554d160c21b81565b6040516affffffffffffffffffffff1990911681526020015b60405180910390f35b34801561015a57600080fd5b5061016e610169366004610b87565b600155565b005b34801561017c57600080fd5b5061012c665155120bd554d160c21b81565b34801561019a57600080fd5b5061016e610332565b3480156101af57600080fd5b5061016e6101be366004610b87565b610367565b3480156101cf57600080fd5b5061016e610398565b3480156101e457600080fd5b506101f86101f3366004610b87565b61055d565b6040516001600160a01b039091168152602001610145565b61016e61021e366004610b87565b610587565b34801561022f57600080fd5b5061023960015481565b604051908152602001610145565b34801561025357600080fd5b506003546102619060ff1681565b6040519015158152602001610145565b34801561027d57600080fd5b5061016e61072a565b34801561029257600080fd5b5061023960025481565b3480156102a857600080fd5b5061016e6102b7366004610b87565b600055565b3480156102c857600080fd5b5061016e6108c6565b3480156102dd57600080fd5b5061012c66509510cbd554d160c21b81565b3480156102fb57600080fd5b5061023960005481565b34801561031157600080fd5b50610239610320366004610bb8565b60056020526000908152604090205481565b60035460ff1661035d5760405162461bcd60e51b815260040161035490610bdc565b60405180910390fd5b610365610398565b565b604051339082156108fc029083906000818181858888f19350505050158015610394573d6000803e3d6000fd5b5050565b60035460ff166103ba5760405162461bcd60e51b815260040161035490610bdc565b60015442101561040c5760405162461bcd60e51b815260206004820152601760248201527f526f756e6420686173206e6f7420656e646564207965740000000000000000006044820152606401610354565b6003805460ff1916905560045460000361042257565b600454600090610433600143610c1b565b61043e919040610c2e565b905060006004828154811061045557610455610c50565b60009182526020822001546040516001600160a01b039091169250479190839083908381818185875af1925050503d80600081146104af576040519150601f19603f3d011682016040523d82523d6000602084013e6104b4565b606091505b50509050806104f75760405162461bcd60e51b815260206004820152600f60248201526e151c985b9cd9995c8819985a5b1959608a1b6044820152606401610354565b604080516001600160a01b0385168152602081018490527fa49efdde740c1e6a0e4eeb9e7b2c5f9305ca78fc5f61c672be3688209feade1b910160405180910390a1604080516000815260208101918290525161055691600491610b0d565b5050505050565b6004818154811061056d57600080fd5b6000918252602090912001546001600160a01b0316905081565b600081116105d75760405162461bcd60e51b815260206004820152601d60248201527f416d6f756e74206d7573742062652067726561746572207468616e20300000006044820152606401610354565b60035460ff166105f95760405162461bcd60e51b815260040161035490610bdc565b600154421061063c5760405162461bcd60e51b815260206004820152600f60248201526e149bdd5b99081a185cc8195b991959608a1b6044820152606401610354565b80341461068b5760405162461bcd60e51b815260206004820152601a60248201527f416d6f756e74206d757374206d617463682073656e74204554480000000000006044820152606401610354565b33600090815260056020526040812080548392906106aa908490610c66565b9091555050600480546001810182556000919091527f8a35acfbc15ff81a39ae7d344fd709f28e8600b4aa8c65c6b64bfe7fe36bd19b0180546001600160a01b031916339081179091556040518281527fc28711c8dcc0cb3d25732e13809d1d8c2640669a0a3fb4f7729810a9caaffdff9060200160405180910390a250565b60035460ff161561077d5760405162461bcd60e51b815260206004820152601960248201527f4120726f756e6420697320616c726561647920616374697665000000000000006044820152606401610354565b60006107876108e7565b9050600061079361096e565b9050600061079f6109b2565b905060006107b784665193148bd554d160c21b6109f6565b905060006107cf8466509510cbd554d160c21b6109f6565b905060006107e784665155120bd554d160c21b6109f6565b9050600080548411806107fb575060005483115b80610807575060005482115b905080156108bd576002805490600061081f83610c79565b90915550429050600061083482610258610c66565b60018181556003805460ff19169091179055600254604080518581526020810184905292935090917fa359b664a68acd8839e42112eb50eff3408165e15074fde89ddb58a0db2e691d910160405180910390a26040518281527f3d01c4ba0165a3f9c01ca4916efd5efd92dd9ac07569ff74d7047c7cde6683499060200160405180910390a150505b50505050505050565b60035460ff1680156108da57506001544210155b1561036557610365610398565b6000806108f2610a44565b604051632cff56fb60e11b8152665193148bd554d160c21b60048201529091506001600160a01b038216906359feadf6906024015b6040805180830381865afa158015610943573d6000803e3d6000fd5b505050506040513d601f19601f820116820180604052508101906109679190610c92565b5092915050565b600080610979610a44565b604051632cff56fb60e11b815266509510cbd554d160c21b60048201529091506001600160a01b038216906359feadf690602401610927565b6000806109bd610a44565b604051632cff56fb60e11b8152665155120bd554d160c21b60048201529091506001600160a01b038216906359feadf690602401610927565b30600090815260056020526040812054808203610a17576000915050610a3e565b6000818511610a2f57610a2a8583610c1b565b610a39565b610a398286610c1b565b925050505b92915050565b600073ad67fe66660fb8dfe9d6b1b4240d8650e30f60196001600160a01b031663159354a2604051602001610a9390602080825260069082015265233a39b7ab1960d11b604082015260600190565b604051602081830303815290604052805190602001206040518263ffffffff1660e01b8152600401610ac791815260200190565b602060405180830381865afa158015610ae4573d6000803e3d6000fd5b505050506040513d601f19601f82011682018060405250810190610b089190610ccf565b905090565b828054828255906000526020600020908101928215610b62579160200282015b82811115610b6257825182546001600160a01b0319166001600160a01b03909116178255602090920191600190910190610b2d565b50610b6e929150610b72565b5090565b5b80821115610b6e5760008155600101610b73565b600060208284031215610b9957600080fd5b5035919050565b6001600160a01b0381168114610bb557600080fd5b50565b600060208284031215610bca57600080fd5b8135610bd581610ba0565b9392505050565b6020808252600f908201526e139bc81858dd1a5d99481c9bdd5b99608a1b604082015260600190565b634e487b7160e01b600052601160045260246000fd5b81810381811115610a3e57610a3e610c05565b600082610c4b57634e487b7160e01b600052601260045260246000fd5b500690565b634e487b7160e01b600052603260045260246000fd5b80820180821115610a3e57610a3e610c05565b600060018201610c8b57610c8b610c05565b5060010190565b60008060408385031215610ca557600080fd5b82519150602083015167ffffffffffffffff81168114610cc457600080fd5b809150509250929050565b600060208284031215610ce157600080fd5b8151610bd581610ba056fea26469706673582212203760dc8f42f627b5772992ec1d9e2aaf9ccaa7543abde85be688d69696a038a164736f6c63430008140033",
  "devdoc": {
    "kind": "dev",
    "methods": {},
    "version": 1
  },
  "userdoc": {
    "kind": "user",
    "methods": {},
    "version": 1
  },
  "storageLayout": {
    "storage": [
      {
        "astId": 7709,
        "contract": "contracts/VolatilityLottery.sol:VolatilityLottery",
        "label": "lotteryThreshold",
        "offset": 0,
        "slot": "0",
        "type": "t_uint256"
      },
      {
        "astId": 7711,
        "contract": "contracts/VolatilityLottery.sol:VolatilityLottery",
        "label": "lotteryEndTime",
        "offset": 0,
        "slot": "1",
        "type": "t_uint256"
      },
      {
        "astId": 7713,
        "contract": "contracts/VolatilityLottery.sol:VolatilityLottery",
        "label": "roundId",
        "offset": 0,
        "slot": "2",
        "type": "t_uint256"
      },
      {
        "astId": 7715,
        "contract": "contracts/VolatilityLottery.sol:VolatilityLottery",
        "label": "isRoundActive",
        "offset": 0,
        "slot": "3",
        "type": "t_bool"
      },
      {
        "astId": 7718,
        "contract": "contracts/VolatilityLottery.sol:VolatilityLottery",
        "label": "participants",
        "offset": 0,
        "slot": "4",
        "type": "t_array(t_address)dyn_storage"
      },
      {
        "astId": 7722,
        "contract": "contracts/VolatilityLottery.sol:VolatilityLottery",
        "label": "participantBalances",
        "offset": 0,
        "slot": "5",
        "type": "t_mapping(t_address,t_uint256)"
      }
    ],
    "types": {
      "t_address": {
        "encoding": "inplace",
        "label": "address",
        "numberOfBytes": "20"
      },
      "t_array(t_address)dyn_storage": {
        "base": "t_address",
        "encoding": "dynamic_array",
        "label": "address[]",
        "numberOfBytes": "32"
      },
      "t_bool": {
        "encoding": "inplace",
        "label": "bool",
        "numberOfBytes": "1"
      },
      "t_mapping(t_address,t_uint256)": {
        "encoding": "mapping",
        "key": "t_address",
        "label": "mapping(address => uint256)",
        "numberOfBytes": "32",
        "value": "t_uint256"
      },
      "t_uint256": {
        "encoding": "inplace",
        "label": "uint256",
        "numberOfBytes": "32"
      }
    }
  }
}